:020000040800F2
:10000000080800200D0200086902000869020008C3
:100010006902000869020008690200080000000087
:10002000000000000000000000000000690200085D
:100030006902000800000000690200086902000867
:1000400069020008690200086902000869020008E4
:1000500069020008690200082D030008690200080F
:1000600069020008690200086902000869020008C4
:1000700069020008690200086902000869020008B4
:1000800069020008690200086902000869020008A4
:100090006902000869020008690200086902000894
:1000A0006902000869020008690200086902000884
:1000B0006902000869020008690200086902000874
:1000C0006902000869020008690200086902000864
:1000D0006902000869020008690200086902000854
:1000E0006902000869020008690200086902000844
:1000F0006902000869020008690200086902000834
:100100006902000869020008690200086902000823
:100110006902000869020008690200086902000813
:100120006902000869020008690200086902000803
:1001300069020008690200086902000869020008F3
:1001400069020008690200086902000869020008E3
:1001500069020008690200086902000869020008D3
:1001600069020008690200086902000869020008C3
:1001700069020008690200086902000869020008B3
:10018000690200086902000890B484B000AF034619
:100190000A46FB711346BB710023FB60BB7903F079
:1001A00003039B000F2202FA03F3FB601649BB799D
:1001B0009B08DBB21846144ABB799B08DBB20233BA
:1001C00052F82320FB68DB431A40831C41F82320AC
:1001D0000D48BB799B08DBB21C460B4ABB799B08D8
:1001E000DBB2023352F82320F979BB7903F0030321
:1001F0009B0001FA03F31A43A31C40F8232000BF1D
:100200001037BD4690BC70470038014080B582B0C1
:1002100000AF104B7B60104B3B6007E03B681A1D42
:100220003A607A68111D796012681A603B680B4A5F
:100230009342F3D30A480B494FF000028842B8BFFB
:1002400040F8042BFADB00F0D5F800BF0837BD46B4
:1002500080BD00BF600C00080000002000000020EE
:10026000000000200400002080B400AFFEE700BFC3
:1002700080B582B000AF0121082000F0E3F84FF410
:1002800000533B6001233B7103237B710023BB714F
:100290000023FB713B461946034800F02DF900BFCF
:1002A0000837BD4680BD00BF000C024080B586B057
:1002B00000AF0121012000F0C5F801214FF480407A
:1002C00000F0FCF800233B750023BB7501233B6164
:1002D0000223FB7502237B7507F1100319461248B0
:1002E00000F00AF900210020FFF74EFF0123BB6058
:1002F0000123BB7300233B7310237B7307F10803B7
:10030000184600F089FA06233B7100237B71002315
:10031000BB710123FB713B1D184600F021FB00BFA0
:100320001837BD4680BD00BF0000024080B586B0D2
:1003300000AF012000F0E2FA0346002B2BD04FF46F
:100340000051174800F066F9164B1B680133154A37
:10035000136070233B8001237B800223BB81114B00
:100360001968114B83FB0132CB17D21A13465B007D
:1003700013445B00CA1AD3007B617B69BB603B46B8
:1003800019460A4800F0D6FB0821084800F04CFC4A
:10039000012000F0D7FA00BF1837BD4680BD00BF6E
:1003A000000C024000000020ABAAAA2A000800406E
:1003B00080B584B000AF0121042000F061F840F264
:1003C0003F63BB800023FB80C823BB600023BB814D
:1003D0000023BB733B1D1946054800F021FB01219A
:1003E000034800F087FB00BF1037BD4680BD00BF4B
:1003F0000008004080B582B000AF00F065F9FFF75B
:1004000037FF0121082000F01DF802220C210C48C2
:1004100000F012F94FF480533B600023BB710023BE
:10042000FB7102233B7103237B713B461946044851
:1004300000F062F8FFF7BCFFFFF738FFFEE700BFF0
:10044000000C024080B483B000AF78600B46FB70B4
:10045000FB78002B06D00949084B1A6B7B681343C5
:100460000B6306E00549054B1A6B7B68DB431340C1
:100470000B6300BF0C37BD4680BC7047003802409C
:1004800080B483B000AF78600B46FB70FB78002B24
:1004900006D00949084B1A6C7B6813430B6406E0CD
:1004A0000549054B1A6C7B68DB4313400B6400BFA6
:1004B0000C37BD4680BC70470038024080B483B022
:1004C00000AF78600B46FB70FB78002B06D0094923
:1004D000084B5A6C7B6813434B6406E00549054B97
:1004E0005A6C7B68DB4313404B6400BF0C37BD463E
:1004F00080BC70470038024080B487B000AF78609D
:10050000396000237B6100233B610023FB600023F3
:100510007B6176E001227B6902FA03F33B613B6871
:100520001A683B691340FB60FA683B699A4265D1DF
:100530007B681A687B695B00032101FA03F3DB43E4
:100540001A407B681A607B681A683B681B791946F9
:100550007B695B0001FA03F31A437B681A603B680E
:100560001B79012B03D03B681B79022B2ED17B68B2
:100570009A687B695B00032101FA03F3DB431A40AD
:100580007B689A607B689A683B685B7919467B69EF
:100590005B0001FA03F31A437B689A607B685A6830
:1005A0007B699BB2194601238B40DB431A407B6871
:1005B0005A607B685B683A68927911467A6992B2B0
:1005C00001FA02F292B21A437B685A607B68DA68D9
:1005D0007B699BB25B00032101FA03F3DB431A4002
:1005E0007B68DA607B68DA683B68DB7919467B698F
:1005F0005B0001FA03F31A437B68DA607B6901331D
:100600007B617B690F2B85D900BF1C37BD4680BC41
:10061000704700BF80B483B000AF78600B467B802A
:100620007B685A697B885A407B685A6100BF0C37E7
:10063000BD4680BC704700BF80B485B000AF786015
:100640000B467B8013467B700023FB600023BB605E
:100650007A787B8803F007039B0002FA03F3FB60C0
:100660007B88DB089BB218467B88DB089BB21A4666
:100670007B68083253F822207B8803F007039B0035
:100680000F2101FA03F3DB4302EA03017B6800F167
:10069000080243F822107B88DB089BB21A467B686D
:1006A000083253F82220FB681343BB607B88DB08C9
:1006B0009BB21A467B680832B96843F8221000BF23
:1006C0001437BD4680BC704780B500AF124A124B4C
:1006D0001B6843F0010313600F4B00229A600E4A1F
:1006E0000D4B1B6823F0847323F4803313600A4B93
:1006F0000A4A5A60084A084B1B6823F48023136097
:10070000054B0022DA6000F00DF8054B4FF0006257
:100710009A6000BF80BD00BF003802401030002446
:1007200000ED00E080B483B000AF00237B600023C5
:100730003B60354A344B1B6843F480331360324BC3
:100740001B6803F400333B607B6801337B603B68CC
:10075000002B03D17B68B3F5A06FF0D12A4B1B6847
:1007600003F40033002B02D001233B6001E000239F
:100770003B603B68012B42D1234A234B1B6C43F067
:1007800080531364214A214B1B6843F48043136058
:100790001D4A1D4B9B6893601B4A1B4B9B6843F48F
:1007A00000439360184A184B9B6843F4A05393602E
:1007B000154B174A5A60144A134B1B6843F0807359
:1007C000136000BF104B1B6803F00073002BF9D0BF
:1007D000104B40F205621A600B4A0B4B9B6823F0EA
:1007E00003039360084A084B9B6843F0020393603D
:1007F00000BF054B9B6803F00C03082BF9D100BF29
:100800000C37BD4680BC7047003802400070004085
:1008100019544007003C024080B485B000AF7860B6
:100820000023FB60344BFB607B689B79002B4FD02F
:100830003149314B1A687B681B68DB4313400B60FE
:100840002D492D4B5A687B681B68DB4313404B6076
:100850007B681B791A46FB681344FB60FB68FA68E7
:1008600011687A6812680A431A602349224B9A6811
:100870007B681B68DB4313408B601F491E4BDA68A3
:100880007B681B68DB431340CB607B685B79102B74
:100890000ED11949184B9A687B681B6813438B600B
:1008A0001549154BDA687B681B681343CB601DE064
:1008B000114BFB607B685B791A46FB681344FB6055
:1008C000FB68FA6811687A6812680A431A600DE0DA
:1008D0007B681B791A46FB681344FB60FB68FA6867
:1008E00011687A681268D2430A401A6000BF143750
:1008F000BD4680BC704700BF003C014080B485B05D
:1009000000AF78600023FB730023BB600C4B1A68B8
:100910007B681340BB600A4B5A697B681340002B0D
:1009200005D0BB68002B02D00123FB7301E000233C
:10093000FB73FB7B18461437BD4680BC704700BF75
:10094000003C014080B483B000AF7860034A7B680C
:10095000536100BF0C37BD4680BC7047003C01406E
:1009600080B485B000AF78600023FB730023BB73B5
:100970000F237B737B68DB78002B38D0264BDB683A
:10098000DB4303F4E0631B0AFB73FB7BC3F104034B
:10099000BB737A7BFB7B42FA03F37B737B685B78E8
:1009A0001A46BB7B02FA03F3FB737B689A787B7B66
:1009B0001340DAB2FB7B1343FB73FB7B1B01FB731E
:1009C000164A7B681B781344FA7B83F80023134A8A
:1009D0007B681B785B09DBB218467B681B7803F0E9
:1009E0001F03012101FA03F342F820300FE00B4905
:1009F0007B681B785B09DBB218467B681B7803F0C9
:100A00001F0301229A4000F1200341F8232000BF78
:100A10001437BD4680BC704700ED00E000E100E007
:100A200080B485B000AF786039600023FB817B68BB
:100A30001B88FB817B68284A934213D07B68274A36
:100A400093420FD07B68B3F1804F0BD07B68244A70
:100A5000934207D07B68234A934203D07B68224AA3
:100A6000934208D1FB8923F07003FB813B685A88CD
:100A7000FB891343FB817B681C4A93420CD07B6843
:100A80001B4A934208D0FB8923F44073FB813B68E7
:100A90001A89FB891343FB817B68FA891A803B68BA
:100AA0005A687B68DA623B681A887B681A857B68BB
:100AB000094A934203D07B68084A934204D13B68B9
:100AC0009B7A9AB27B681A867B6801229A8200BF61
:100AD0001437BD4680BC704700000140000401404F
:100AE0000004004000080040000C004000100040DE
:100AF0000014004080B483B000AF78600B46FB70F8
:100B0000FB78002B08D07B681B889BB243F0010365
:100B10009AB27B681A8007E07B681B889BB223F03F
:100B200001039AB27B681A8000BF0C37BD4680BCB7
:100B3000704700BF80B485B000AF78603960002393
:100B40007B810023FB810023BB817B681B8C9BB2D4
:100B500023F001039AB27B681A847B681B8CFB81AB
:100B60007B689B88BB817B681B8B7B817B8923F0A7
:100B700070037B817B8923F003037B813B681A88A8
:100B80007B8913437B81FB8923F00203FB813B6854
:100B90009A89FB891343FB813B685A88FB8913437D
:100BA000FB817B681E4A934203D07B681D4A9342B7
:100BB00023D1FB8923F00803FB813B68DA89FB8999
:100BC0001343FB81FB8923F00403FB813B689A8874
:100BD000FB891343FB81BB8923F48073BB81BB89F1
:100BE00023F40073BB813B681A8ABB891343BB8122
:100BF0003B685A8ABB891343BB817B68BA899A8058
:100C00007B687A891A833B689A687B685A637B6839
:100C1000FA891A8400BF1437BD4680BC704700BFF4
:100C2000000001400004014080B485B000AF78604E
:100C30000B467B800023FB817B681B8BFB81FB8940
:100C400023F00803FB81FA897B881343FB817B68CF
:100C5000FA891A8300BF1437BD4680BC704700BFB5
:0400000508000000EF
:00000001FF
