:020000040800F2
:1000000018080020D903000835040008350400084A
:10001000350400083504000835040008000000001D
:10002000000000000000000000000000350400088F
:1000300035040008000000003504000835040008FD
:1000400035040008350400083504000835040008AC
:10005000350400083504000835040008350400089C
:10006000350400083504000835040008350400088C
:10007000350400083504000835040008350400087C
:10008000350400083504000835040008350400086C
:10009000350400083504000835040008350400085C
:1000A000350400083504000835040008350400084C
:1000B000350400083504000835040008350400083C
:1000C000350400083504000835040008350400082C
:1000D000350400083504000835040008350400081C
:1000E000350400083504000835040008350400080C
:1000F00035040008350400083504000835040008FC
:1001000035040008350400083504000835040008EB
:1001100035040008350400083504000835040008DB
:1001200035040008350400083504000835040008CB
:1001300035040008350400083504000835040008BB
:1001400035040008350400083504000835040008AB
:10015000350400083504000835040008350400089B
:10016000350400083504000835040008350400088B
:10017000350400083504000835040008350400087B
:10018000350400083504000880B58AB000AF7860F7
:10019000396000237B6200233B620023FB61002364
:1001A000BB617B681B8A9BB27B627B6A23F44053F2
:1001B0007B623B68DB881A467B6A13437B627B6AFF
:1001C0009AB27B681A827B689B899BB27B627B6A4E
:1001D00023F4B05323F00C037B623B689A883B689E
:1001E0001B8913439AB23B685B8913439BB21A463F
:1001F0007B6A13437B627B6A9AB27B689A817B68D5
:100200009B8A9BB27B627B6A23F440737B623B6870
:100210009B891A467B6A13437B627B6A9AB27B682E
:100220009A8207F10803184600F096FA7B68304A74
:10023000934203D07B682F4A934202D17B693B6291
:1002400001E03B693B627B689B899BB21BB2002B40
:100250000CDA3A6A13469B0013449A001A443B682E
:100260001B685B00B2FBF3F3FB610BE03A6A1346D9
:100270009B0013449A001A443B681B689B00B2FB26
:10028000F3F3FB61FB691C4AA2FB03235B091B011F
:100290007B627B6A1B09642202FB03F3FA69D31AAF
:1002A000BB617B689B899BB21BB2002B0CDABB69DC
:1002B000DB003233104AA2FB03235B0903F0070380
:1002C0007A6A13437B620BE0BB691B0132330A4A33
:1002D000A2FB03235B0903F00F037A6A13437B62DB
:1002E0007B6A9AB27B681A8100BF2837BD4680BD01
:1002F00000100140001401401F85EB5180B483B011
:1003000000AF78600B46FB70FB78002B08D07B6851
:100310009B899BB243F400539AB27B689A8107E0B1
:100320007B689B899BB223F400539AB27B689A81C5
:1003300000BF0C37BD4680BC704700BF80B483B09F
:1003400000AF78600B467B807B88C3F308039AB2CA
:100350007B689A8000BF0C37BD4680BC704700BFE9
:1003600080B483B000AF78607B689B889BB2C3F396
:1003700008039BB218460C37BD4680BC704700BFCF
:1003800080B485B000AF78600B467B800023FB73A0
:100390007B681B889AB27B8813409BB2002B02D0EB
:1003A0000123FB7301E00023FB73FB7B184614372A
:1003B000BD4680BC704700BF80B483B000AF78609A
:1003C0000B467B807B88DB439AB27B681A8000BF38
:1003D0000C37BD4680BC704780B582B000AF104B73
:1003E0007B60104B3B6007E03B681A1D3A607A68FF
:1003F000111D796012681A603B680B4A9342F3D36F
:100400000A480B494FF000028842B8BF40F8042B5D
:10041000FADB00F0F5F800BF0837BD4680BD00BF2D
:10042000240E000800000020100000201000002012
:100430001400002080B400AFFEE700BF80B588B094
:1004400000AF01214FF4002000F04EFA01214FF4DB
:10045000801000F049FA4FF416533B6104237B836C
:1004600000233B830023FB820023BB820023BB834A
:1004700007F1100319461048FFF786FE01210E48C8
:10048000FFF73CFF4FF416533B6008237B810023AA
:100490003B810023FB800023BB800023BB813B46C4
:1004A00019460648FFF770FE01210448FFF726FFB2
:1004B00000BF2037BD4680BD004C004000500040CA
:1004C00080B582B000AF0121042000F0EFF90223D3
:1004D0003B710023BB710023FB714FF4C0533B60A1
:1004E00001237B7108220C21084800F053FC0822EC
:1004F0000B21064800F04EFC3B461946034800F02D
:100500009FFB00BF0837BD4680BD00BF000802400A
:1005100080B582B000AF0121012000F0C7F90023AF
:100520003B710023BB7102237B710023FB7101230C
:100530003B603B461946034800F082FB00BF08378A
:10054000BD4680BD0000024080B582B000AF0121F1
:10055000082000F0ABF901233B714FF470433B607E
:100560000023BB710023FB7102237B713B461946BC
:10057000034800F065FB00BF0837BD4680BD00BFE3
:10058000000C024080B588B000AF0121012000F0CE
:100590008DF901214FF4807000F0C4F90223BB6192
:1005A00003233B770023FB7707F118031946124812
:1005B00000F046FB4FF000733B6000233B710123CA
:1005C0007B710023BB600023FB6000233B610123A0
:1005D0003B753B461946094800F0C2F90423012245
:1005E0000121064800F02CFA0121044800F00CFA21
:1005F00000BF2037BD4680BD000002400020014002
:1006000080B582B000AFFFF79FFFFFF717FFFFF73E
:1006100057FFFFF77DFFFFF7B5FF80214848FFF741
:10062000CBFE20214748FFF7C7FE4FF40051464854
:1006300000F0A2FB454B00221A8000237B60444857
:1006400000F0C8FA00BF0221414800F0DFFA03467B
:10065000002BF8D03E4800F0CDFA03461A463D4B39
:100660001A803C4B1B889BB219463548FFF766FE43
:1006700000BF80213248FFF783FE0346002BF8D0ED
:1006800080212F48FFF798FE00BF20212D48FFF75B
:1006900077FE0346002BF8D02A48FFF761FE034699
:1006A0001A462A4B1A80294B1B889BB2FA2B05D875
:1006B0004FF40051244800F05FFB04E04FF4005178
:1006C000214800F04BFB214B1B889BB2502B05D8D7
:1006D0004FF480511C4800F04FFB04E04FF4805170
:1006E000194800F03BFB194B1B889BB2782B05D8AF
:1006F0004FF48041144800F03FFB04E04FF4804188
:10070000114800F02BFB114B1B889BB2AF2B05D877
:100710004FF400410C4800F02FFB04E04FF400417F
:10072000094800F01BFB20210648FFF745FE802109
:100730000348FFF741FE7B6801337B607FE700BF22
:1007400000500040004C0040000C0240120000200D
:10075000002001401000002080B489B000AF786014
:100760000023BB6100237B610023FB6102233B610B
:100770000023FB600223BB60484B9B6803F00C0323
:10078000BB61BB69042B07D0082B09D0002B3FD1DC
:100790007B68434A1A603FE07B68424A1A603BE04C
:1007A0003E4B5B6803F480039B0DFB603B4B5B6837
:1007B00003F03F03BB60FB68002B0DD0394ABB68D8
:1007C000B2FBF3F2354B596847F6C0730B409B09F7
:1007D00003FB02F3FB610CE0314ABB68B2FBF3F2AE
:1007E0002E4B596847F6C0730B409B0903FB02F37D
:1007F000FB612A4B5B6803F440331B0C01335B0045
:100800003B61FA693B69B2FBF3F27B681A6003E073
:100810007B68234A1A6000BF204B9B6803F0F003FB
:10082000BB61BB691B09BB611F4ABB6913441B78D1
:10083000DBB27B617B681A687B69DA407B685A604F
:10084000164B9B6803F4E053BB61BB699B0ABB6119
:10085000154ABB6913441B78DBB27B617B685A681D
:100860007B69DA407B689A600C4B9B6803F46043B9
:10087000BB61BB695B0BBB610B4ABB6913441B7853
:10088000DBB27B617B685A687B69DA407B68DA603F
:1008900000BF2437BD4680BC704700BF003802400F
:1008A0000024F40040787D010000002080B483B073
:1008B00000AF78600B46FB70FB78002B06D009492F
:1008C000084B1A6B7B6813430B6306E00549054B25
:1008D0001A6B7B68DB4313400B6300BF0C37BD46CC
:1008E00080BC70470038024080B483B000AF7860AD
:1008F0000B46FB70FB78002B06D00949084B1A6C9D
:100900007B6813430B6406E00549054B1A6C7B6852
:10091000DB4313400B6400BF0C37BD4680BC7047FF
:100920000038024080B483B000AF78600B46FB70A3
:10093000FB78002B06D00949084B5A6C7B6813439F
:100940004B6406E00549054B5A6C7B68DB4313405A
:100950004B6400BF0C37BD4680BC70470038024076
:1009600080B485B000AF786039600023FB6000235D
:10097000FB727B685B68FB60FB6823F0407323F4C9
:100980008073FB603B681B791A023B681B6813434A
:10099000FA681343FB607B68FA685A607B689B685F
:1009A000FB60FA68174B1340FB603B681A693B68B1
:1009B000DB681A433B689B681A433B685B795B00C2
:1009C0001343FA681343FB607B68FA689A607B689C
:1009D000DB6AFB60FB6823F47003FB603B681B7DF4
:1009E000013BDAB2FB7A1343FB72FB7A1B05FA6810
:1009F0001343FB607B68FA68DA6200BF1437BD46B8
:100A000080BC7047FDF7FFC080B483B000AF786052
:100A10000B46FB70FB78002B06D07B689B6843F08D
:100A200001027B689A6005E07B689B6823F0010205
:100A30007B689A6000BF0C37BD4680BC704700BF22
:100A400080B485B000AF7860084611461A46034668
:100A5000FB700B46BB7013467B700023FB600023CA
:100A6000BB60FB78092B23D97B68DB68FB60FB78D4
:100A7000A3F10A0213465B001344072202FA03F3B0
:100A8000BB60BB68DB43FA681340FB607978FB7896
:100A9000A3F10A0213465B00134401FA03F3BB609F
:100AA000FA68BB681343FB607B68FA68DA601EE093
:100AB0007B681B69FB60FA7813465B0013440722CE
:100AC00002FA03F3BB60BB68DB43FA681340FB60C8
:100AD0007978FA7813465B00134401FA03F3BB609C
:100AE000FA68BB681343FB607B68FA681A61BB78DD
:100AF000062B21D87B685B6BFB60BB785A1E1346C4
:100B00009B0013441F2202FA03F3BB60BB68DB4364
:100B1000FA681340FB60F978BB785A1E13469B00B5
:100B2000134401FA03F3BB60FA68BB681343FB602C
:100B30007B68FA685A6347E0BB780C2B21D87B6846
:100B40001B6BFB60BB78DA1F13469B0013441F220C
:100B500002FA03F3BB60BB68DB43FA681340FB6037
:100B6000F978BB78DA1F13469B00134401FA03F3AC
:100B7000BB60FA68BB681343FB607B68FA681A6362
:100B800022E07B68DB6AFB60BB78A3F10D021346B1
:100B90009B0013441F2202FA03F3BB60BB68DB43D4
:100BA000FA681340FB60F978BB78A3F10D02134695
:100BB0009B00134401FA03F3BB60FA68BB6813435C
:100BC000FB607B68FA68DA6200BF1437BD4680BC00
:100BD000704700BF80B483B000AF78607B689B68CB
:100BE00043F080427B689A6000BF0C37BD4680BCF2
:100BF000704700BF80B483B000AF78607B68DB6C67
:100C00009BB218460C37BD4680BC704780B485B097
:100C100000AF78600B46FB700023FB737B681A689B
:100C2000FB781340002B02D00123FB7301E000236B
:100C3000FB73FB7B18461437BD4680BC704700BF72
:100C400080B487B000AF7860396000237B610023F7
:100C50003B610023FB6000237B6176E001227B691E
:100C600002FA03F33B613B681A683B691340FB607F
:100C7000FA683B699A4265D17B681A687B695B00B8
:100C8000032101FA03F3DB431A407B681A607B6897
:100C90001A683B681B7919467B695B0001FA03F30C
:100CA0001A437B681A603B681B79012B03D03B68B1
:100CB0001B79022B2ED17B689A687B695B0003212C
:100CC00001FA03F3DB431A407B689A607B689A68F9
:100CD0003B685B7919467B695B0001FA03F31A43B1
:100CE0007B689A607B685A687B699BB219460123CE
:100CF0008B40DB431A407B685A607B685B683A68CC
:100D0000927911467A6992B201FA02F292B21A43CA
:100D10007B685A607B68DA687B699BB25B00032161
:100D200001FA03F3DB431A407B68DA607B68DA6818
:100D30003B68DB7919467B695B0001FA03F31A43D0
:100D40007B68DA607B6901337B617B690F2B85D916
:100D500000BF1C37BD4680BC704700BF80B483B065
:100D600000AF78600B467B807B687A881A8300BF6F
:100D70000C37BD4680BC704780B483B000AF78604C
:100D80000B467B807B687A885A8300BF0C37BD4650
:100D900080BC704780B485B000AF78600B467B8024
:100DA00013467B700023FB600023BB607A787B884E
:100DB00003F007039B0002FA03F3FB607B88DB0868
:100DC0009BB218467B88DB089BB21A467B680832C8
:100DD00053F822207B8803F007039B000F2101FAC0
:100DE00003F3DB4302EA03017B6800F1080243F8E6
:100DF00022107B88DB089BB21A467B68083253F8C6
:100E00002220FB681343BB607B88DB089BB21A4639
:100E10007B680832B96843F8221000BF1437BD461A
:040E200080BC7047DB
:100E2400000000000102030401020304060708098C
:0400000508000000EF
:00000001FF
