:020000040800F2
:100000000808002089010008E5010008E501000852
:10001000E5010008E5010008E50100080000000016
:10002000000000000000000000000000E5010008E2
:10003000E501000800000000E5010008E5010008F6
:10004000E5010008E5010008E5010008E5010008F8
:10005000E5010008E5010008E5010008E5010008E8
:10006000E5010008E5010008E5010008E5010008D8
:10007000E5010008E5010008E5010008E5010008C8
:10008000E5010008E5010008E5010008E5010008B8
:10009000E5010008E5010008E5010008E5010008A8
:1000A000E5010008E5010008E5010008E501000898
:1000B000E5010008E5010008E5010008E501000888
:1000C000E5010008E5010008E5010008E501000878
:1000D000E5010008E5010008E5010008E501000868
:1000E000E5010008E5010008E5010008E501000858
:1000F000E5010008E5010008E5010008E501000848
:10010000E5010008E5010008E5010008E501000837
:10011000E5010008E5010008E5010008E501000827
:10012000E5010008E5010008E5010008E501000817
:10013000E5010008E5010008E5010008E501000807
:10014000E5010008E5010008E5010008E5010008F7
:10015000E5010008E5010008E5010008E5010008E7
:10016000E5010008E5010008E5010008E5010008D7
:10017000E5010008E5010008E5010008E5010008C7
:10018000E5010008E501000880B582B000AF104B22
:100190007B60104B3B6007E03B681A1D3A607A6851
:1001A000111D796012681A603B680B4A9342F3D3C1
:1001B0000A480B494FF000028842B8BF40F8042BB0
:1001C000FADB00F079F800BF0837BD4680BD00BFFC
:1001D0003007000800000020000000200000002080
:1001E0000400002080B400AFFEE700BF80B582B0FD
:1001F00000AF0121082000F069F802220C210B4811
:1002000000F02EF94FF480533B600023BB710023B4
:10021000FB7102233B7103237B713B461946034864
:1002200000F090F800BF0837BD4680BD000C0240CA
:1002300080B586B000AF7023BB800123FB80022312
:100240003B820A4B1B680133084A136040F28F134C
:10025000FB603B1D1946064800F0D4F9082104480C
:1002600000F04AFA00BF1837BD4680BD00000020EC
:100270000008004080B584B000AF0121042000F0E8
:1002800043F86323BB800023FB8040F67F43BB60C1
:100290000023BB810023BB733B1D1946054800F0BA
:1002A00027F90121034800F08DF900BF1037BD4642
:1002B00080BD00BF0008004080B500AFFFF796FF8B
:1002C000FFF7D8FFFFF7B4FFFEE700BF80B483B0AD
:1002D00000AF78600B46FB70FB78002B06D0094915
:1002E000084B1A6B7B6813430B6306E00549054B0B
:1002F0001A6B7B68DB4313400B6300BF0C37BD46B2
:1003000080BC70470038024080B483B000AF786092
:100310000B46FB70FB78002B06D00949084B1A6C82
:100320007B6813430B6406E00549054B1A6C7B6838
:10033000DB4313400B6400BF0C37BD4680BC7047E5
:100340000038024080B487B000AF78603960002385
:100350007B6100233B610023FB6000237B6176E02F
:1003600001227B6902FA03F33B613B681A683B692F
:100370001340FB60FA683B699A4265D17B681A6852
:100380007B695B00032101FA03F3DB431A407B68BE
:100390001A607B681A683B681B7919467B695B00A9
:1003A00001FA03F31A437B681A603B681B79012B3F
:1003B00003D03B681B79022B2ED17B689A687B693E
:1003C0005B00032101FA03F3DB431A407B689A6068
:1003D0007B689A683B685B7919467B695B0001FA28
:1003E00003F31A437B689A607B685A687B699BB207
:1003F000194601238B40DB431A407B685A607B68B7
:100400005B683A68927911467A6992B201FA02F20F
:1004100092B21A437B685A607B68DA687B699BB248
:100420005B00032101FA03F3DB431A407B68DA60C7
:100430007B68DA683B68DB7919467B695B0001FA07
:1004400003F31A437B68DA607B6901337B617B6964
:100450000F2B85D900BF1C37BD4680BC704700BF3D
:1004600080B485B000AF78600B467B8013467B700C
:100470000023FB600023BB607A787B8803F00703CE
:100480009B0002FA03F3FB607B88DB089BB21846F3
:100490007B88DB089BB21A467B68083253F822201F
:1004A0007B8803F007039B000F2101FA03F3DB4372
:1004B00002EA03017B6800F1080243F822107B88FE
:1004C000DB089BB21A467B68083253F82220FB688F
:1004D0001343BB607B88DB089BB21A467B680832FB
:1004E000B96843F8221000BF1437BD4680BC70477E
:1004F00080B485B000AF786039600023FB817B68F1
:100500001B88FB817B68284A934213D07B68274A6B
:1005100093420FD07B68B3F1804F0BD07B68244AA5
:10052000934207D07B68234A934203D07B68224AD8
:10053000934208D1FB8923F07003FB813B685A8802
:10054000FB891343FB817B681C4A93420CD07B6878
:100550001B4A934208D0FB8923F44073FB813B681C
:100560001A89FB891343FB817B68FA891A803B68EF
:100570005A687B68DA623B681A887B681A857B68F0
:10058000094A934203D07B68084A934204D13B68EE
:100590009B7A9AB27B681A867B6801229A8200BF96
:1005A0001437BD4680BC7047000001400004014084
:1005B0000004004000080040000C00400010004013
:1005C0000014004080B483B000AF78600B46FB702D
:1005D000FB78002B08D07B681B889BB243F001039B
:1005E0009AB27B681A8007E07B681B889BB223F075
:1005F00001039AB27B681A8000BF0C37BD4680BCED
:10060000704700BF80B485B000AF786039600023C8
:100610007B810023FB810023BB817B681B8C9BB209
:1006200023F001039AB27B681A847B681B8CFB81E0
:100630007B689B88BB817B681B8B7B817B8923F0DC
:1006400070037B817B8923F003037B813B681A88DD
:100650007B8913437B81FB8923F00203FB813B6889
:100660009A89FB891343FB813B685A88FB891343B2
:10067000FB817B681E4A934203D07B681D4A9342EC
:1006800023D1FB8923F00803FB813B68DA89FB89CE
:100690001343FB81FB8923F00403FB813B689A88A9
:1006A000FB891343FB81BB8923F48073BB81BB8926
:1006B00023F40073BB813B681A8ABB891343BB8157
:1006C0003B685A8ABB891343BB817B68BA899A808D
:1006D0007B687A891A833B689A687B685A637B686F
:1006E000FA891A8400BF1437BD4680BC704700BF2A
:1006F000000001400004014080B485B000AF786084
:100700000B467B800023FB817B681B8BFB81FB8975
:1007100023F00803FB81FA897B881343FB817B6804
:10072000FA891A8300BF1437BD4680BC704700BFEA
:0400000508000000EF
:00000001FF
